{
  "contractName": "MultiNumberBettingV2",
  "abi": [
    {
      "inputs": [
        {
          "internalType": "uint8",
          "name": "x",
          "type": "uint8"
        },
        {
          "internalType": "uint8",
          "name": "y",
          "type": "uint8"
        },
        {
          "internalType": "uint8",
          "name": "z",
          "type": "uint8"
        }
      ],
      "payable": false,
      "stateMutability": "nonpayable",
      "type": "constructor"
    },
    {
      "constant": false,
      "inputs": [
        {
          "internalType": "uint8",
          "name": "x",
          "type": "uint8"
        },
        {
          "internalType": "string",
          "name": "name",
          "type": "string"
        }
      ],
      "name": "guess",
      "outputs": [
        {
          "internalType": "bool",
          "name": "",
          "type": "bool"
        }
      ],
      "payable": false,
      "stateMutability": "nonpayable",
      "type": "function"
    },
    {
      "constant": true,
      "inputs": [],
      "name": "totalGuesses",
      "outputs": [
        {
          "internalType": "uint256",
          "name": "",
          "type": "uint256"
        }
      ],
      "payable": false,
      "stateMutability": "view",
      "type": "function"
    },
    {
      "constant": true,
      "inputs": [],
      "name": "getLastWinner",
      "outputs": [
        {
          "internalType": "bytes",
          "name": "",
          "type": "bytes"
        }
      ],
      "payable": false,
      "stateMutability": "view",
      "type": "function"
    }
  ],
  "bytecode": "0x608060405234801561001057600080fd5b5060405161068e38038061068e8339818101604052606081101561003357600080fd5b8101908080519060200190929190805190602001909291908051906020019092919050505060405180606001604052808460ff1660ff1681526020018360ff1660ff1681526020018260ff1660ff16815250600290600361009592919061009e565b50505050610175565b82805482825590600052602060002090601f016020900481019282156101345791602002820160005b8382111561010557835183826101000a81548160ff021916908360ff16021790555092602001926001016020816000010492830192600103026100c7565b80156101325782816101000a81549060ff0219169055600101602081600001049283019260010302610105565b505b5090506101419190610145565b5090565b61017291905b8082111561016e57600081816101000a81549060ff02191690555060010161014b565b5090565b90565b61050a806101846000396000f3fe608060405234801561001057600080fd5b50600436106100415760003560e01c80638ef282491461004657806395583f7114610064578063f88649a114610144575b600080fd5b61004e6101c7565b6040518082815260200191505060405180910390f35b61012a6004803603604081101561007a57600080fd5b81019080803560ff169060200190929190803590602001906401000000008111156100a457600080fd5b8201836020820111156100b657600080fd5b803590602001918460018302840111640100000000831117156100d857600080fd5b91908080601f016020809104026020016040519081016040528093929190818152602001838380828437600081840152601f19601f8201169050808301925050505050505091929192905050506101d5565b604051808215151515815260200191505060405180910390f35b61014c610281565b6040518080602001828103825283818151815260200191508051906020019080838360005b8381101561018c578082015181840152602081019050610171565b50505050905090810190601f1680156101b95780820380516001836020036101000a031916815260200191505b509250505060405180910390f35b600060015460005401905090565b600080600090505b600280549050811015610264578360ff16600282815481106101fb57fe5b90600052602060002090602091828204019190069054906101000a900460ff1660ff16141561025757600160008154809291906001019190505550826003908051906020019061024c929190610430565b50600191505061027b565b80806001019150506101dd565b506000808154809291906001019190505550600090505b92915050565b60608060038054600181600116156101000203166002900480601f01602080910402602001604051908101604052809291908181526020018280546001816001161561010002031660029004801561031a5780601f106102ef5761010080835404028352916020019161031a565b820191906000526020600020905b8154815290600101906020018083116102fd57829003601f168201915b5050505050905060008151146103f357600060038251111561033d576003610340565b81515b90506060816040519080825280601f01601f1916602001820160405280156103775781602001600182028038833980820191505090505b50905060008090505b828110156103e75783818151811061039457fe5b602001015160f81c60f81b8282815181106103ab57fe5b60200101907effffffffffffffffffffffffffffffffffffffffffffffffffffffffffffff1916908160001a9053508080600101915050610380565b5080935050505061042d565b6040518060400160405280600381526020017f2a2a2a00000000000000000000000000000000000000000000000000000000008152509150505b90565b828054600181600116156101000203166002900490600052602060002090601f016020900481019282601f1061047157805160ff191683800117855561049f565b8280016001018555821561049f579182015b8281111561049e578251825591602001919060010190610483565b5b5090506104ac91906104b0565b5090565b6104d291905b808211156104ce5760008160009055506001016104b6565b5090565b9056fea265627a7a7231582058a57cf65bf212f0a50b0c180a745c59e4cf519b06d54ba805c02ff28bddabb064736f6c63430005100032",
  "source": "pragma solidity >=0.4.22 <0.9.0;\n\ncontract MultiNumberBettingV2 {\n    uint loserCount;\n    uint winnerCount;\n    uint8[] arr;\n    string lastWinnerName;\n\n    constructor(uint8 x, uint8 y, uint8 z) public {\n        arr = [x, y, z];\n    }\n\n    function guess(uint8 x, string memory name) public returns (bool) {\n        for (uint i=0; i < arr.length; i++) {\n            if (arr[i] == x) {\n                winnerCount++;\n                lastWinnerName = name;\n                return true;\n            }\n        }\n\n        loserCount++;\n        return false;\n    } \n\n    function totalGuesses() public view returns (uint) {\n        return loserCount + winnerCount;\n    }\n\n    function getLastWinner() public view returns (bytes memory) {\n        bytes memory lastWinnerNameBytes = bytes(lastWinnerName);\n        if (lastWinnerNameBytes.length != 0) {\n            uint end = lastWinnerNameBytes.length <= 3? lastWinnerNameBytes.length : 3;\n            bytes memory firstThreeBytes = new bytes(end);\n            for (uint i = 0; i < end; i++) {\n                firstThreeBytes[i] = lastWinnerNameBytes[i];\n            }\n            return firstThreeBytes;\n        }\n        else {\n            return bytes(\"***\");\n        }\n    }\n}\n",
  "sourcePath": "/Users/lordchingiss/Desktop/CS/Personal/DistributedSystems/Ethereum/DAppDesignDevelopment/Exercises/MultiNumberBettingV2/contracts/MultiNumberBettingV2.sol",
  "compiler": {
    "name": "solc",
    "version": "0.5.16+commit.9c3226ce.Emscripten.clang"
  },
  "schemaVersion": "3.3.3",
  "updatedAt": "2021-01-05T01:25:56.456Z",
  "devdoc": {
    "methods": {}
  },
  "userdoc": {
    "methods": {}
  }
}