{
  "contractName": "MultiNumberBettingV5",
  "abi": [
    {
      "inputs": [
        {
          "internalType": "uint8",
          "name": "x",
          "type": "uint8"
        },
        {
          "internalType": "uint8",
          "name": "y",
          "type": "uint8"
        },
        {
          "internalType": "uint8",
          "name": "z",
          "type": "uint8"
        }
      ],
      "payable": true,
      "stateMutability": "payable",
      "type": "constructor"
    },
    {
      "constant": false,
      "inputs": [
        {
          "internalType": "uint8",
          "name": "x",
          "type": "uint8"
        },
        {
          "internalType": "string",
          "name": "name",
          "type": "string"
        }
      ],
      "name": "guess",
      "outputs": [
        {
          "internalType": "bool",
          "name": "",
          "type": "bool"
        }
      ],
      "payable": true,
      "stateMutability": "payable",
      "type": "function"
    },
    {
      "constant": true,
      "inputs": [],
      "name": "getLoserCount",
      "outputs": [
        {
          "internalType": "uint256",
          "name": "",
          "type": "uint256"
        }
      ],
      "payable": false,
      "stateMutability": "view",
      "type": "function"
    },
    {
      "constant": true,
      "inputs": [],
      "name": "getWinnerCount",
      "outputs": [
        {
          "internalType": "uint256",
          "name": "",
          "type": "uint256"
        }
      ],
      "payable": false,
      "stateMutability": "view",
      "type": "function"
    },
    {
      "constant": true,
      "inputs": [],
      "name": "daysSinceLastWinning",
      "outputs": [
        {
          "internalType": "uint256",
          "name": "",
          "type": "uint256"
        }
      ],
      "payable": false,
      "stateMutability": "view",
      "type": "function"
    },
    {
      "constant": true,
      "inputs": [],
      "name": "hoursSinceLastWinning",
      "outputs": [
        {
          "internalType": "uint256",
          "name": "",
          "type": "uint256"
        }
      ],
      "payable": false,
      "stateMutability": "view",
      "type": "function"
    },
    {
      "constant": true,
      "inputs": [],
      "name": "minutesSinceLastWinning",
      "outputs": [
        {
          "internalType": "uint256",
          "name": "",
          "type": "uint256"
        }
      ],
      "payable": false,
      "stateMutability": "view",
      "type": "function"
    },
    {
      "constant": true,
      "inputs": [],
      "name": "getLastWinnerInfo",
      "outputs": [
        {
          "internalType": "address",
          "name": "winnerAddress",
          "type": "address"
        },
        {
          "internalType": "string",
          "name": "name",
          "type": "string"
        },
        {
          "internalType": "uint8",
          "name": "guessVal",
          "type": "uint8"
        },
        {
          "internalType": "uint256",
          "name": "timeGuessed",
          "type": "uint256"
        },
        {
          "internalType": "uint256",
          "name": "ethersReceived",
          "type": "uint256"
        }
      ],
      "payable": false,
      "stateMutability": "view",
      "type": "function"
    },
    {
      "constant": true,
      "inputs": [
        {
          "internalType": "address",
          "name": "addr",
          "type": "address"
        }
      ],
      "name": "checkWinning",
      "outputs": [
        {
          "internalType": "address",
          "name": "winnerAddress",
          "type": "address"
        },
        {
          "internalType": "string",
          "name": "name",
          "type": "string"
        },
        {
          "internalType": "uint8",
          "name": "guessVal",
          "type": "uint8"
        },
        {
          "internalType": "uint256",
          "name": "guessedAt",
          "type": "uint256"
        }
      ],
      "payable": false,
      "stateMutability": "view",
      "type": "function"
    }
  ],
  "bytecode": "0x6080604052604051610de3380380610de38339818101604052606081101561002657600080fd5b8101908080519060200190929190805190602001909291908051906020019092919050505060405180606001604052808460ff1660ff1681526020018360ff1660ff1681526020018260ff1660ff168152506003906003610088929190610091565b50505050610168565b82805482825590600052602060002090601f016020900481019282156101275791602002820160005b838211156100f857835183826101000a81548160ff021916908360ff16021790555092602001926001016020816000010492830192600103026100ba565b80156101255782816101000a81549060ff02191690556001016020816000010492830192600103026100f8565b505b5090506101349190610138565b5090565b61016591905b8082111561016157600081816101000a81549060ff02191690555060010161013e565b5090565b90565b610c6c806101776000396000f3fe60806040526004361061007b5760003560e01c8063817495a11161004e578063817495a11461021257806395583f711461023d578063a46c36371461031d578063ee040eb9146103485761007b565b806315153cdc1461008057806348992bfa146100ab5780635249c231146100d65780636d48a043146101e7575b600080fd5b34801561008c57600080fd5b50610095610426565b6040518082815260200191505060405180910390f35b3480156100b757600080fd5b506100c061044f565b6040518082815260200191505060405180910390f35b3480156100e257600080fd5b50610125600480360360208110156100f957600080fd5b81019080803573ffffffffffffffffffffffffffffffffffffffff169060200190929190505050610477565b604051808573ffffffffffffffffffffffffffffffffffffffff1673ffffffffffffffffffffffffffffffffffffffff168152602001806020018460ff1660ff168152602001838152602001828103825285818151815260200191508051906020019080838360005b838110156101a957808201518184015260208101905061018e565b50505050905090810190601f1680156101d65780820380516001836020036101000a031916815260200191505b509550505050505060405180910390f35b3480156101f357600080fd5b506101fc610658565b6040518082815260200191505060405180910390f35b34801561021e57600080fd5b50610227610682565b6040518082815260200191505060405180910390f35b6103036004803603604081101561025357600080fd5b81019080803560ff1690602001909291908035906020019064010000000081111561027d57600080fd5b82018360208201111561028f57600080fd5b803590602001918460018302840111640100000000831117156102b157600080fd5b91908080601f016020809104026020016040519081016040528093929190818152602001838380828437600081840152601f19601f82011690508083019250505050505050919291929050505061068b565b604051808215151515815260200191505060405180910390f35b34801561032957600080fd5b5061033261096d565b6040518082815260200191505060405180910390f35b34801561035457600080fd5b5061035d610977565b604051808673ffffffffffffffffffffffffffffffffffffffff1673ffffffffffffffffffffffffffffffffffffffff168152602001806020018560ff1660ff168152602001848152602001838152602001828103825286818151815260200191508051906020019080838360005b838110156103e75780820151818401526020810190506103cc565b50505050905090810190601f1680156104145780820380516001836020036101000a031916815260200191505b50965050505050505060405180910390f35b600080600254141561043957600061044a565b610e1060025442038161044857fe5b045b905090565b6000806002541415610462576000610472565b603c60025442038161047057fe5b045b905090565b60006060600080610486610b4a565b600560008773ffffffffffffffffffffffffffffffffffffffff1673ffffffffffffffffffffffffffffffffffffffff1681526020019081526020016000206040518060a00160405290816000820160009054906101000a900473ffffffffffffffffffffffffffffffffffffffff1673ffffffffffffffffffffffffffffffffffffffff1673ffffffffffffffffffffffffffffffffffffffff168152602001600182018054600181600116156101000203166002900480601f0160208091040260200160405190810160405280929190818152602001828054600181600116156101000203166002900480156105bf5780601f10610594576101008083540402835291602001916105bf565b820191906000526020600020905b8154815290600101906020018083116105a257829003601f168201915b505050505081526020016002820160009054906101000a900460ff1660ff1660ff168152602001600382015481526020016004820154815250509050600073ffffffffffffffffffffffffffffffffffffffff16816000015173ffffffffffffffffffffffffffffffffffffffff161461065057806000015194508060200151935080604001519250806060015191505b509193509193565b600080600254141561066b57600061067d565b6201518060025442038161067b57fe5b045b905090565b60008054905090565b6000600a8360ff16111561069e57600080fd5b670de0b6b3a764000034101580156106be5750674563918244f400003411155b6106c757600080fd5b60008090505b600380549050811015610950578360ff16600382815481106106eb57fe5b90600052602060002090602091828204019190069054906101000a900460ff1660ff1614156109435760016000815480929190600101919050555033600460006101000a81548173ffffffffffffffffffffffffffffffffffffffff021916908373ffffffffffffffffffffffffffffffffffffffff160217905550426002819055506040518060a00160405280600460009054906101000a900473ffffffffffffffffffffffffffffffffffffffff1673ffffffffffffffffffffffffffffffffffffffff1681526020018481526020018560ff1681526020014281526020013481525060056000600460009054906101000a900473ffffffffffffffffffffffffffffffffffffffff1673ffffffffffffffffffffffffffffffffffffffff1673ffffffffffffffffffffffffffffffffffffffff16815260200190815260200160002060008201518160000160006101000a81548173ffffffffffffffffffffffffffffffffffffffff021916908373ffffffffffffffffffffffffffffffffffffffff1602179055506020820151816001019080519060200190610894929190610b92565b5060408201518160020160006101000a81548160ff021916908360ff1602179055506060820151816003015560808201518160040155905050600460009054906101000a900473ffffffffffffffffffffffffffffffffffffffff1673ffffffffffffffffffffffffffffffffffffffff166108fc600234029081150290604051600060405180830381858888f19350505050158015610938573d6000803e3d6000fd5b506001915050610967565b80806001019150506106cd565b506000808154809291906001019190505550600090505b92915050565b6000600154905090565b600060606000806000610988610b4a565b60056000600460009054906101000a900473ffffffffffffffffffffffffffffffffffffffff1673ffffffffffffffffffffffffffffffffffffffff1673ffffffffffffffffffffffffffffffffffffffff1681526020019081526020016000206040518060a00160405290816000820160009054906101000a900473ffffffffffffffffffffffffffffffffffffffff1673ffffffffffffffffffffffffffffffffffffffff1673ffffffffffffffffffffffffffffffffffffffff168152602001600182018054600181600116156101000203166002900480601f016020809104026020016040519081016040528092919081815260200182805460018160011615610100020316600290048015610ae35780601f10610ab857610100808354040283529160200191610ae3565b820191906000526020600020905b815481529060010190602001808311610ac657829003601f168201915b505050505081526020016002820160009054906101000a900460ff1660ff1660ff1681526020016003820154815260200160048201548152505090508060000151955080602001519450806040015193508060600151925080608001519150509091929394565b6040518060a00160405280600073ffffffffffffffffffffffffffffffffffffffff16815260200160608152602001600060ff16815260200160008152602001600081525090565b828054600181600116156101000203166002900490600052602060002090601f016020900481019282601f10610bd357805160ff1916838001178555610c01565b82800160010185558215610c01579182015b82811115610c00578251825591602001919060010190610be5565b5b509050610c0e9190610c12565b5090565b610c3491905b80821115610c30576000816000905550600101610c18565b5090565b9056fea265627a7a7231582014bc4fc078e258fb919ee70cf8e03c1f487b46725417fdb3177efbd37ca4e7fe64736f6c63430005100032",
  "source": "pragma solidity >=0.4.22 <0.9.0;\nimport './MultiNumberBettingAbstractV1.sol';\n\ncontract MultiNumberBettingV5 is MultiNumberBettingAbstractV1 {\n    // Winner MultiNumberBettingAbstractV1() \n    struct winner {\n        address winnerAddress;\n        string name;\n        uint8 guess;\n        uint guessedAt;\n        uint ethersReceived;\n    }\n\n    uint loserCount;\n    uint winnerCount;\n    uint lastWinnerAt;  // time of last winning\n    uint8[] arr;  // array of numbers to be guessed (0 to 10)\n    address payable lastWinnerAddress;  \n    mapping(address => winner) winners;  // mapping to keep track of winners' info\n\n    constructor(uint8 x, uint8 y, uint8 z) public payable {\n        arr = [x, y, z];\n    }\n\n    /* Lets user guess a number in the array (0-10) */\n    function guess(uint8 x, string memory name) public payable returns (bool) {\n        require(x <= 10);\n        //require(1 ether == 1000000000000000011 wei);\n        //assert(1 >= 10); \n        require(msg.value >= MIN_BET && msg.value <= MAX_BET);\n        for (uint i=0; i < arr.length; i++) {\n            if (arr[i] == x) {\n                winnerCount++;\n                lastWinnerAddress = msg.sender; \n                lastWinnerAt = now;\n                winners[lastWinnerAddress] = winner(lastWinnerAddress, name, x, now, msg.value);\n                lastWinnerAddress.transfer(msg.value * 2);\n                return true;\n            }\n        }\n\n        loserCount++;\n        return false;\n    } \n\n    function getLoserCount() public view returns (uint) {\n        return loserCount;\n    }\n\n    function getWinnerCount() public view returns (uint) {\n        return winnerCount;\n    }\n\n    function daysSinceLastWinning() public view returns (uint) {\n        return lastWinnerAt != 0 ? (now - lastWinnerAt) / 1 days : 0;\n    }\n\n    function hoursSinceLastWinning() public view returns (uint) {\n        return lastWinnerAt != 0 ? (now - lastWinnerAt) / 1 hours : 0;\n    }\n\n    function minutesSinceLastWinning() public view returns (uint) {\n        return lastWinnerAt != 0 ? (now - lastWinnerAt) / 1 minutes : 0;\n    }\n\n    function getLastWinnerInfo() public view returns (address winnerAddress, string memory name, uint8 guessVal, uint timeGuessed, uint ethersReceived) {\n        winner memory lastWinner = winners[lastWinnerAddress];\n        winnerAddress = lastWinner.winnerAddress;\n        name = lastWinner.name;\n        //name = \"Kermit\";\n        guessVal = lastWinner.guess;\n        timeGuessed = lastWinner.guessedAt;\n        ethersReceived = lastWinner.ethersReceived;\n    }\n\n    function checkWinning(address addr) public view returns (address winnerAddress, string memory name, uint8 guessVal, uint guessedAt) {\n        winner memory winr = winners[addr];\n        if (winr.winnerAddress != address(0)) {\n            winnerAddress = winr.winnerAddress;\n            name = winr.name;\n            guessVal = winr.guess;\n            guessedAt = winr.guessedAt;\n        }\n    }\n}\n",
  "sourcePath": "/Users/lordchingiss/Desktop/CS/Personal/DistributedSystems/Ethereum/DAppDesignDevelopment/Exercises/MultiNumberBettingV5/contracts/MultiNumberBettingV5.sol",
  "compiler": {
    "name": "solc",
    "version": "0.5.16+commit.9c3226ce.Emscripten.clang"
  },
  "schemaVersion": "3.3.3",
  "updatedAt": "2021-01-13T01:23:48.505Z",
  "devdoc": {
    "methods": {}
  },
  "userdoc": {
    "methods": {}
  }
}