{
  "contractName": "MultiNumberBettingV1",
  "abi": [
    {
      "inputs": [
        {
          "internalType": "uint8",
          "name": "x",
          "type": "uint8"
        },
        {
          "internalType": "uint8",
          "name": "y",
          "type": "uint8"
        },
        {
          "internalType": "uint8",
          "name": "z",
          "type": "uint8"
        }
      ],
      "payable": false,
      "stateMutability": "nonpayable",
      "type": "constructor"
    },
    {
      "constant": false,
      "inputs": [
        {
          "internalType": "uint8",
          "name": "x",
          "type": "uint8"
        }
      ],
      "name": "guess",
      "outputs": [
        {
          "internalType": "bool",
          "name": "",
          "type": "bool"
        }
      ],
      "payable": false,
      "stateMutability": "nonpayable",
      "type": "function"
    },
    {
      "constant": true,
      "inputs": [],
      "name": "totalGuesses",
      "outputs": [
        {
          "internalType": "uint256",
          "name": "",
          "type": "uint256"
        }
      ],
      "payable": false,
      "stateMutability": "view",
      "type": "function"
    }
  ],
  "bytecode": "0x608060405234801561001057600080fd5b506040516102fd3803806102fd8339818101604052606081101561003357600080fd5b8101908080519060200190929190805190602001909291908051906020019092919050505060405180606001604052808460ff1660ff1681526020018360ff1660ff1681526020018260ff1660ff16815250600290600361009592919061009e565b50505050610175565b82805482825590600052602060002090601f016020900481019282156101345791602002820160005b8382111561010557835183826101000a81548160ff021916908360ff16021790555092602001926001016020816000010492830192600103026100c7565b80156101325782816101000a81549060ff0219169055600101602081600001049283019260010302610105565b505b5090506101419190610145565b5090565b61017291905b8082111561016e57600081816101000a81549060ff02191690555060010161014b565b5090565b90565b610179806101846000396000f3fe608060405234801561001057600080fd5b50600436106100365760003560e01c80634ba4c16b1461003b5780638ef2824914610084575b600080fd5b61006a6004803603602081101561005157600080fd5b81019080803560ff1690602001909291905050506100a2565b604051808215151515815260200191505060405180910390f35b61008c610136565b6040518082815260200191505060405180910390f35b600080600090505b60028054905081101561011a578260ff16600282815481106100c857fe5b90600052602060002090602091828204019190069054906101000a900460ff1660ff16141561010d576001600081548092919060010191905055506001915050610131565b80806001019150506100aa565b600080815480929190600101919050555060009150505b919050565b60006001546000540190509056fea265627a7a72315820a2a01943af83fa987c6c75b42f69e407e4b0aa743acba084470c19c49fc88d8664736f6c63430005100032",
  "source": "pragma solidity >=0.4.22 <0.9.0;\n\ncontract MultiNumberBettingV1 {\n    uint loserCount;\n    uint winnerCount;\n    uint8[] arr;\n\n    constructor(uint8 x, uint8 y, uint8 z) public {\n        arr = [x, y, z];\n    }\n\n    function guess(uint8 x) public returns (bool) {\n        uint i;\n        for (i=0; i < arr.length; i++) {\n            if (arr[i] == x) {\n                winnerCount++;\n                return true;\n            }\n        }\n\n        loserCount++;\n        return false;\n    } \n\n    function totalGuesses() public view returns (uint) {\n        return loserCount + winnerCount;\n    }\n}\n",
  "sourcePath": "/Users/lordchingiss/Desktop/CS/Personal/DistributedSystems/Ethereum/DAppDesignDevelopment/Exercises/MultiNumberBettingV1/contracts/MultiNumberBettingV1.sol",
  "compiler": {
    "name": "solc",
    "version": "0.5.16+commit.9c3226ce.Emscripten.clang"
  },
  "schemaVersion": "3.3.3",
  "updatedAt": "2021-01-04T08:15:40.504Z",
  "devdoc": {
    "methods": {}
  },
  "userdoc": {
    "methods": {}
  }
}