{
  "contractName": "MultiNumberBettingV6",
  "abi": [
    {
      "inputs": [
        {
          "internalType": "uint8",
          "name": "x",
          "type": "uint8"
        },
        {
          "internalType": "uint8",
          "name": "y",
          "type": "uint8"
        },
        {
          "internalType": "uint8",
          "name": "z",
          "type": "uint8"
        }
      ],
      "payable": true,
      "stateMutability": "payable",
      "type": "constructor"
    },
    {
      "payable": true,
      "stateMutability": "payable",
      "type": "fallback"
    },
    {
      "constant": false,
      "inputs": [
        {
          "internalType": "uint8",
          "name": "x",
          "type": "uint8"
        },
        {
          "internalType": "string",
          "name": "name",
          "type": "string"
        }
      ],
      "name": "guess",
      "outputs": [
        {
          "internalType": "bool",
          "name": "",
          "type": "bool"
        }
      ],
      "payable": true,
      "stateMutability": "payable",
      "type": "function"
    },
    {
      "constant": false,
      "inputs": [
        {
          "internalType": "uint256",
          "name": "amt",
          "type": "uint256"
        }
      ],
      "name": "ownerWithdraw",
      "outputs": [],
      "payable": true,
      "stateMutability": "payable",
      "type": "function"
    },
    {
      "constant": true,
      "inputs": [],
      "name": "getLoserCount",
      "outputs": [
        {
          "internalType": "uint256",
          "name": "",
          "type": "uint256"
        }
      ],
      "payable": false,
      "stateMutability": "view",
      "type": "function"
    },
    {
      "constant": true,
      "inputs": [],
      "name": "getWinnerCount",
      "outputs": [
        {
          "internalType": "uint256",
          "name": "",
          "type": "uint256"
        }
      ],
      "payable": false,
      "stateMutability": "view",
      "type": "function"
    },
    {
      "constant": true,
      "inputs": [],
      "name": "daysSinceLastWinning",
      "outputs": [
        {
          "internalType": "uint256",
          "name": "",
          "type": "uint256"
        }
      ],
      "payable": false,
      "stateMutability": "view",
      "type": "function"
    },
    {
      "constant": true,
      "inputs": [],
      "name": "hoursSinceLastWinning",
      "outputs": [
        {
          "internalType": "uint256",
          "name": "",
          "type": "uint256"
        }
      ],
      "payable": false,
      "stateMutability": "view",
      "type": "function"
    },
    {
      "constant": true,
      "inputs": [],
      "name": "minutesSinceLastWinning",
      "outputs": [
        {
          "internalType": "uint256",
          "name": "",
          "type": "uint256"
        }
      ],
      "payable": false,
      "stateMutability": "view",
      "type": "function"
    },
    {
      "constant": true,
      "inputs": [],
      "name": "getLastWinnerInfo",
      "outputs": [
        {
          "internalType": "address",
          "name": "winnerAddress",
          "type": "address"
        },
        {
          "internalType": "string",
          "name": "name",
          "type": "string"
        },
        {
          "internalType": "uint8",
          "name": "guessVal",
          "type": "uint8"
        },
        {
          "internalType": "uint256",
          "name": "timeGuessed",
          "type": "uint256"
        },
        {
          "internalType": "uint256",
          "name": "ethersReceived",
          "type": "uint256"
        }
      ],
      "payable": false,
      "stateMutability": "view",
      "type": "function"
    },
    {
      "constant": true,
      "inputs": [
        {
          "internalType": "address",
          "name": "addr",
          "type": "address"
        }
      ],
      "name": "checkWinning",
      "outputs": [
        {
          "internalType": "address",
          "name": "winnerAddress",
          "type": "address"
        },
        {
          "internalType": "string",
          "name": "name",
          "type": "string"
        },
        {
          "internalType": "uint8",
          "name": "guessVal",
          "type": "uint8"
        },
        {
          "internalType": "uint256",
          "name": "guessedAt",
          "type": "uint256"
        }
      ],
      "payable": false,
      "stateMutability": "view",
      "type": "function"
    }
  ],
  "bytecode": "0x6080604052604051610f56380380610f568339818101604052606081101561002657600080fd5b8101908080519060200190929190805190602001909291908051906020019092919050505060405180606001604052808460ff1660ff1681526020018360ff1660ff1681526020018260ff1660ff1681525060039060036100889291906100d2565b5033600660006101000a81548173ffffffffffffffffffffffffffffffffffffffff021916908373ffffffffffffffffffffffffffffffffffffffff1602179055505050506101a9565b82805482825590600052602060002090601f016020900481019282156101685791602002820160005b8382111561013957835183826101000a81548160ff021916908360ff16021790555092602001926001016020816000010492830192600103026100fb565b80156101665782816101000a81549060ff0219169055600101602081600001049283019260010302610139565b505b5090506101759190610179565b5090565b6101a691905b808211156101a257600081816101000a81549060ff02191690555060010161017f565b5090565b90565b610d9e806101b86000396000f3fe6080604052600436106100865760003560e01c80636d48a043116100595780636d48a0431461021d578063817495a11461024857806395583f7114610273578063a46c363714610353578063ee040eb91461037e57610086565b806315153cdc1461008857806333f707d1146100b357806348992bfa146100e15780635249c2311461010c575b005b34801561009457600080fd5b5061009d61045c565b6040518082815260200191505060405180910390f35b6100df600480360360208110156100c957600080fd5b8101908080359060200190929190505050610485565b005b3480156100ed57600080fd5b506100f661056a565b6040518082815260200191505060405180910390f35b34801561011857600080fd5b5061015b6004803603602081101561012f57600080fd5b81019080803573ffffffffffffffffffffffffffffffffffffffff169060200190929190505050610592565b604051808573ffffffffffffffffffffffffffffffffffffffff1673ffffffffffffffffffffffffffffffffffffffff168152602001806020018460ff1660ff168152602001838152602001828103825285818151815260200191508051906020019080838360005b838110156101df5780820151818401526020810190506101c4565b50505050905090810190601f16801561020c5780820380516001836020036101000a031916815260200191505b509550505050505060405180910390f35b34801561022957600080fd5b50610232610773565b6040518082815260200191505060405180910390f35b34801561025457600080fd5b5061025d61079d565b6040518082815260200191505060405180910390f35b6103396004803603604081101561028957600080fd5b81019080803560ff169060200190929190803590602001906401000000008111156102b357600080fd5b8201836020820111156102c557600080fd5b803590602001918460018302840111640100000000831117156102e757600080fd5b91908080601f016020809104026020016040519081016040528093929190818152602001838380828437600081840152601f19601f8201169050808301925050505050505091929192905050506107a6565b604051808215151515815260200191505060405180910390f35b34801561035f57600080fd5b50610368610a9f565b6040518082815260200191505060405180910390f35b34801561038a57600080fd5b50610393610aa9565b604051808673ffffffffffffffffffffffffffffffffffffffff1673ffffffffffffffffffffffffffffffffffffffff168152602001806020018560ff1660ff168152602001848152602001838152602001828103825286818151815260200191508051906020019080838360005b8381101561041d578082015181840152602081019050610402565b50505050905090810190601f16801561044a5780820380516001836020036101000a031916815260200191505b50965050505050505060405180910390f35b600080600254141561046f576000610480565b610e1060025442038161047e57fe5b045b905090565b600660009054906101000a900473ffffffffffffffffffffffffffffffffffffffff1673ffffffffffffffffffffffffffffffffffffffff163373ffffffffffffffffffffffffffffffffffffffff16141561056257674563918244f40000600302814703116104f457600080fd5b600660009054906101000a900473ffffffffffffffffffffffffffffffffffffffff1673ffffffffffffffffffffffffffffffffffffffff166108fc829081150290604051600060405180830381858888f1935050505015801561055c573d6000803e3d6000fd5b50610567565b600080fd5b50565b600080600254141561057d57600061058d565b603c60025442038161058b57fe5b045b905090565b600060606000806105a1610c7c565b600560008773ffffffffffffffffffffffffffffffffffffffff1673ffffffffffffffffffffffffffffffffffffffff1681526020019081526020016000206040518060a00160405290816000820160009054906101000a900473ffffffffffffffffffffffffffffffffffffffff1673ffffffffffffffffffffffffffffffffffffffff1673ffffffffffffffffffffffffffffffffffffffff168152602001600182018054600181600116156101000203166002900480601f0160208091040260200160405190810160405280929190818152602001828054600181600116156101000203166002900480156106da5780601f106106af576101008083540402835291602001916106da565b820191906000526020600020905b8154815290600101906020018083116106bd57829003601f168201915b505050505081526020016002820160009054906101000a900460ff1660ff1660ff168152602001600382015481526020016004820154815250509050600073ffffffffffffffffffffffffffffffffffffffff16816000015173ffffffffffffffffffffffffffffffffffffffff161461076b57806000015194508060200151935080604001519250806060015191505b509193509193565b6000806002541415610786576000610798565b6201518060025442038161079657fe5b045b905090565b60008054905090565b6000600a8360ff1611156107b957600080fd5b674563918244f4000060030247116107d057600080fd5b670de0b6b3a764000034101580156107f05750674563918244f400003411155b6107f957600080fd5b60008090505b600380549050811015610a82578360ff166003828154811061081d57fe5b90600052602060002090602091828204019190069054906101000a900460ff1660ff161415610a755760016000815480929190600101919050555033600460006101000a81548173ffffffffffffffffffffffffffffffffffffffff021916908373ffffffffffffffffffffffffffffffffffffffff160217905550426002819055506040518060a00160405280600460009054906101000a900473ffffffffffffffffffffffffffffffffffffffff1673ffffffffffffffffffffffffffffffffffffffff1681526020018481526020018560ff1681526020014281526020013481525060056000600460009054906101000a900473ffffffffffffffffffffffffffffffffffffffff1673ffffffffffffffffffffffffffffffffffffffff1673ffffffffffffffffffffffffffffffffffffffff16815260200190815260200160002060008201518160000160006101000a81548173ffffffffffffffffffffffffffffffffffffffff021916908373ffffffffffffffffffffffffffffffffffffffff16021790555060208201518160010190805190602001906109c6929190610cc4565b5060408201518160020160006101000a81548160ff021916908360ff1602179055506060820151816003015560808201518160040155905050600460009054906101000a900473ffffffffffffffffffffffffffffffffffffffff1673ffffffffffffffffffffffffffffffffffffffff166108fc600234029081150290604051600060405180830381858888f19350505050158015610a6a573d6000803e3d6000fd5b506001915050610a99565b80806001019150506107ff565b506000808154809291906001019190505550600090505b92915050565b6000600154905090565b600060606000806000610aba610c7c565b60056000600460009054906101000a900473ffffffffffffffffffffffffffffffffffffffff1673ffffffffffffffffffffffffffffffffffffffff1673ffffffffffffffffffffffffffffffffffffffff1681526020019081526020016000206040518060a00160405290816000820160009054906101000a900473ffffffffffffffffffffffffffffffffffffffff1673ffffffffffffffffffffffffffffffffffffffff1673ffffffffffffffffffffffffffffffffffffffff168152602001600182018054600181600116156101000203166002900480601f016020809104026020016040519081016040528092919081815260200182805460018160011615610100020316600290048015610c155780601f10610bea57610100808354040283529160200191610c15565b820191906000526020600020905b815481529060010190602001808311610bf857829003601f168201915b505050505081526020016002820160009054906101000a900460ff1660ff1660ff1681526020016003820154815260200160048201548152505090508060000151955080602001519450806040015193508060600151925080608001519150509091929394565b6040518060a00160405280600073ffffffffffffffffffffffffffffffffffffffff16815260200160608152602001600060ff16815260200160008152602001600081525090565b828054600181600116156101000203166002900490600052602060002090601f016020900481019282601f10610d0557805160ff1916838001178555610d33565b82800160010185558215610d33579182015b82811115610d32578251825591602001919060010190610d17565b5b509050610d409190610d44565b5090565b610d6691905b80821115610d62576000816000905550600101610d4a565b5090565b9056fea265627a7a723158206e0c3b40d5b5550d815c6d9e7689681d04cb6c151026dcfd5f58586cc70c02d964736f6c63430005100032",
  "source": "pragma solidity >=0.4.22 <0.9.0;\nimport './MultiNumberBettingAbstractV2.sol';\n\ncontract MultiNumberBettingV6 is MultiNumberBettingAbstractV2 {\n    // Winner MultiNumberBettingAbstractV1() \n    struct winner {\n        address winnerAddress;\n        string name;\n        uint8 guess;\n        uint guessedAt;\n        uint ethersReceived;\n    }\n\n    uint loserCount;\n    uint winnerCount;\n    uint lastWinnerAt;  // time of last winning\n    uint8[] arr;  // array of numbers to be guessed (0 to 10)\n    address payable lastWinnerAddress;  \n    mapping(address => winner) winners;  // mapping to keep track of winners' info\n    address payable owner;\n\n    constructor(uint8 x, uint8 y, uint8 z) public payable {\n        arr = [x, y, z];\n        owner = msg.sender;\n    }\n\n    modifier ownerOnly {\n        if(msg.sender == owner) {\n            _;\n        } else {\n            revert();\n        }\n    }\n\n    /* Lets user guess a number in the array (0-10) */\n    function guess(uint8 x, string memory name) public payable returns (bool) {\n        require(x <= 10);\n        //require(1 ether == 1000000000000000011 wei);\n        //assert(1 >= 10); \n        require(address(this).balance > 3*MAX_BET);\n        require(msg.value >= MIN_BET && msg.value <= MAX_BET);\n        for (uint i=0; i < arr.length; i++) {\n            if (arr[i] == x) {\n                winnerCount++;\n                lastWinnerAddress = msg.sender; \n                lastWinnerAt = now;\n                winners[lastWinnerAddress] = winner(lastWinnerAddress, name, x, now, msg.value);\n                lastWinnerAddress.transfer(msg.value * 2);\n                return true;\n            }\n        }\n\n        loserCount++;\n        return false;\n    } \n\n    function ownerWithdraw(uint amt) ownerOnly public payable {\n         require(address(this).balance - amt > 3 * MAX_BET);\n         owner.transfer(amt);\n    }\n\n    function getLoserCount() public view returns (uint) {\n        return loserCount;\n    }\n\n    function getWinnerCount() public view returns (uint) {\n        return winnerCount;\n    }\n\n    function daysSinceLastWinning() public view returns (uint) {\n        return lastWinnerAt != 0 ? (now - lastWinnerAt) / 1 days : 0;\n    }\n\n    function hoursSinceLastWinning() public view returns (uint) {\n        return lastWinnerAt != 0 ? (now - lastWinnerAt) / 1 hours : 0;\n    }\n\n    function minutesSinceLastWinning() public view returns (uint) {\n        return lastWinnerAt != 0 ? (now - lastWinnerAt) / 1 minutes : 0;\n    }\n\n    function getLastWinnerInfo() public view returns (address winnerAddress, string memory name, uint8 guessVal, uint timeGuessed, uint ethersReceived) {\n        winner memory lastWinner = winners[lastWinnerAddress];\n        winnerAddress = lastWinner.winnerAddress;\n        name = lastWinner.name;\n        guessVal = lastWinner.guess;\n        timeGuessed = lastWinner.guessedAt;\n        ethersReceived = lastWinner.ethersReceived;\n    }\n\n    function checkWinning(address addr) public view returns (address winnerAddress, string memory name, uint8 guessVal, uint guessedAt) {\n        winner memory winr = winners[addr];\n        if (winr.winnerAddress != address(0)) {\n            winnerAddress = winr.winnerAddress;\n            name = winr.name;\n            guessVal = winr.guess;\n            guessedAt = winr.guessedAt;\n        }\n    }\n\n    function() external payable {\n    \n    }\n}\n",
  "sourcePath": "/Users/lordchingiss/Desktop/CS/Personal/DistributedSystems/Ethereum/DAppDesignDevelopment/Exercises/MultiNumberBettingV6/contracts/MultiNumberBettingV6.sol",
  "compiler": {
    "name": "solc",
    "version": "0.5.16+commit.9c3226ce.Emscripten.clang"
  },
  "schemaVersion": "3.3.3",
  "updatedAt": "2021-01-17T06:43:12.910Z",
  "networkType": "ethereum",
  "devdoc": {
    "methods": {}
  },
  "userdoc": {
    "methods": {}
  }
}