{
  "contractName": "MultiNumberBettingV4",
  "abi": [
    {
      "inputs": [
        {
          "internalType": "uint8",
          "name": "x",
          "type": "uint8"
        },
        {
          "internalType": "uint8",
          "name": "y",
          "type": "uint8"
        },
        {
          "internalType": "uint8",
          "name": "z",
          "type": "uint8"
        }
      ],
      "payable": false,
      "stateMutability": "nonpayable",
      "type": "constructor"
    },
    {
      "constant": false,
      "inputs": [
        {
          "internalType": "uint8",
          "name": "x",
          "type": "uint8"
        },
        {
          "internalType": "string",
          "name": "name",
          "type": "string"
        }
      ],
      "name": "guess",
      "outputs": [
        {
          "internalType": "bool",
          "name": "",
          "type": "bool"
        }
      ],
      "payable": false,
      "stateMutability": "nonpayable",
      "type": "function"
    },
    {
      "constant": true,
      "inputs": [],
      "name": "getLoserCount",
      "outputs": [
        {
          "internalType": "uint256",
          "name": "",
          "type": "uint256"
        }
      ],
      "payable": false,
      "stateMutability": "view",
      "type": "function"
    },
    {
      "constant": true,
      "inputs": [],
      "name": "getWinnerCount",
      "outputs": [
        {
          "internalType": "uint256",
          "name": "",
          "type": "uint256"
        }
      ],
      "payable": false,
      "stateMutability": "view",
      "type": "function"
    },
    {
      "constant": true,
      "inputs": [],
      "name": "daysSinceLastWinning",
      "outputs": [
        {
          "internalType": "uint256",
          "name": "",
          "type": "uint256"
        }
      ],
      "payable": false,
      "stateMutability": "view",
      "type": "function"
    },
    {
      "constant": true,
      "inputs": [],
      "name": "hoursSinceLastWinning",
      "outputs": [
        {
          "internalType": "uint256",
          "name": "",
          "type": "uint256"
        }
      ],
      "payable": false,
      "stateMutability": "view",
      "type": "function"
    },
    {
      "constant": true,
      "inputs": [],
      "name": "minutesSinceLastWinning",
      "outputs": [
        {
          "internalType": "uint256",
          "name": "",
          "type": "uint256"
        }
      ],
      "payable": false,
      "stateMutability": "view",
      "type": "function"
    },
    {
      "constant": true,
      "inputs": [],
      "name": "getLastWinnerInfo",
      "outputs": [
        {
          "internalType": "address",
          "name": "winnerAddress",
          "type": "address"
        },
        {
          "internalType": "string",
          "name": "name",
          "type": "string"
        },
        {
          "internalType": "uint8",
          "name": "guessVal",
          "type": "uint8"
        },
        {
          "internalType": "uint256",
          "name": "timeGuessed",
          "type": "uint256"
        }
      ],
      "payable": false,
      "stateMutability": "view",
      "type": "function"
    },
    {
      "constant": true,
      "inputs": [
        {
          "internalType": "address",
          "name": "addr",
          "type": "address"
        }
      ],
      "name": "checkWinning",
      "outputs": [
        {
          "internalType": "address",
          "name": "winnerAddress",
          "type": "address"
        },
        {
          "internalType": "string",
          "name": "name",
          "type": "string"
        },
        {
          "internalType": "uint8",
          "name": "guessVal",
          "type": "uint8"
        },
        {
          "internalType": "uint256",
          "name": "guessedAt",
          "type": "uint256"
        }
      ],
      "payable": false,
      "stateMutability": "view",
      "type": "function"
    }
  ],
  "bytecode": "0x608060405234801561001057600080fd5b50604051610cce380380610cce8339818101604052606081101561003357600080fd5b8101908080519060200190929190805190602001909291908051906020019092919050505060405180606001604052808460ff1660ff1681526020018360ff1660ff1681526020018260ff1660ff16815250600390600361009592919061009e565b50505050610175565b82805482825590600052602060002090601f016020900481019282156101345791602002820160005b8382111561010557835183826101000a81548160ff021916908360ff16021790555092602001926001016020816000010492830192600103026100c7565b80156101325782816101000a81549060ff0219169055600101602081600001049283019260010302610105565b505b5090506101419190610145565b5090565b61017291905b8082111561016e57600081816101000a81549060ff02191690555060010161014b565b5090565b90565b610b4a806101846000396000f3fe608060405234801561001057600080fd5b50600436106100885760003560e01c8063817495a11161005b578063817495a1146101eb57806395583f7114610209578063a46c3637146102e9578063ee040eb91461030757610088565b806315153cdc1461008d57806348992bfa146100ab5780635249c231146100c95780636d48a043146101cd575b600080fd5b6100956103d1565b6040518082815260200191505060405180910390f35b6100b36103fa565b6040518082815260200191505060405180910390f35b61010b600480360360208110156100df57600080fd5b81019080803573ffffffffffffffffffffffffffffffffffffffff169060200190929190505050610422565b604051808573ffffffffffffffffffffffffffffffffffffffff1673ffffffffffffffffffffffffffffffffffffffff168152602001806020018460ff1660ff168152602001838152602001828103825285818151815260200191508051906020019080838360005b8381101561018f578082015181840152602081019050610174565b50505050905090810190601f1680156101bc5780820380516001836020036101000a031916815260200191505b509550505050505060405180910390f35b6101d56105f9565b6040518082815260200191505060405180910390f35b6101f3610623565b6040518082815260200191505060405180910390f35b6102cf6004803603604081101561021f57600080fd5b81019080803560ff1690602001909291908035906020019064010000000081111561024957600080fd5b82018360208201111561025b57600080fd5b8035906020019184600183028401116401000000008311171561027d57600080fd5b91908080601f016020809104026020016040519081016040528093929190818152602001838380828437600081840152601f19601f82011690508083019250505050505050919291929050505061062c565b604051808215151515815260200191505060405180910390f35b6102f1610866565b6040518082815260200191505060405180910390f35b61030f610870565b604051808573ffffffffffffffffffffffffffffffffffffffff1673ffffffffffffffffffffffffffffffffffffffff168152602001806020018460ff1660ff168152602001838152602001828103825285818151815260200191508051906020019080838360005b83811015610393578082015181840152602081019050610378565b50505050905090810190601f1680156103c05780820380516001836020036101000a031916815260200191505b509550505050505060405180910390f35b60008060025414156103e45760006103f5565b610e106002544203816103f357fe5b045b905090565b600080600254141561040d57600061041d565b603c60025442038161041b57fe5b045b905090565b60006060600080610431610a2f565b600560008773ffffffffffffffffffffffffffffffffffffffff1673ffffffffffffffffffffffffffffffffffffffff1681526020019081526020016000206040518060800160405290816000820160009054906101000a900473ffffffffffffffffffffffffffffffffffffffff1673ffffffffffffffffffffffffffffffffffffffff1673ffffffffffffffffffffffffffffffffffffffff168152602001600182018054600181600116156101000203166002900480601f01602080910402602001604051908101604052809291908181526020018280546001816001161561010002031660029004801561056a5780601f1061053f5761010080835404028352916020019161056a565b820191906000526020600020905b81548152906001019060200180831161054d57829003601f168201915b505050505081526020016002820160009054906101000a900460ff1660ff1660ff1681526020016003820154815250509050600073ffffffffffffffffffffffffffffffffffffffff16816000015173ffffffffffffffffffffffffffffffffffffffff16146105f157806000015194508060200151935080604001519250806060015191505b509193509193565b600080600254141561060c57600061061e565b6201518060025442038161061c57fe5b045b905090565b60008054905090565b6000600a8360ff16111561063c57fe5b60008090505b600380549050811015610849578360ff166003828154811061066057fe5b90600052602060002090602091828204019190069054906101000a900460ff1660ff16141561083c5760016000815480929190600101919050555032600460006101000a81548173ffffffffffffffffffffffffffffffffffffffff021916908373ffffffffffffffffffffffffffffffffffffffff160217905550426002819055506040518060800160405280600460009054906101000a900473ffffffffffffffffffffffffffffffffffffffff1673ffffffffffffffffffffffffffffffffffffffff1681526020018481526020018560ff1681526020014281525060056000600460009054906101000a900473ffffffffffffffffffffffffffffffffffffffff1673ffffffffffffffffffffffffffffffffffffffff1673ffffffffffffffffffffffffffffffffffffffff16815260200190815260200160002060008201518160000160006101000a81548173ffffffffffffffffffffffffffffffffffffffff021916908373ffffffffffffffffffffffffffffffffffffffff1602179055506020820151816001019080519060200190610803929190610a70565b5060408201518160020160006101000a81548160ff021916908360ff160217905550606082015181600301559050506001915050610860565b8080600101915050610642565b506000808154809291906001019190505550600090505b92915050565b6000600154905090565b6000606060008061087f610a2f565b60056000600460009054906101000a900473ffffffffffffffffffffffffffffffffffffffff1673ffffffffffffffffffffffffffffffffffffffff1673ffffffffffffffffffffffffffffffffffffffff1681526020019081526020016000206040518060800160405290816000820160009054906101000a900473ffffffffffffffffffffffffffffffffffffffff1673ffffffffffffffffffffffffffffffffffffffff1673ffffffffffffffffffffffffffffffffffffffff168152602001600182018054600181600116156101000203166002900480601f0160208091040260200160405190810160405280929190818152602001828054600181600116156101000203166002900480156109da5780601f106109af576101008083540402835291602001916109da565b820191906000526020600020905b8154815290600101906020018083116109bd57829003601f168201915b505050505081526020016002820160009054906101000a900460ff1660ff1660ff1681526020016003820154815250509050806000015194508060200151935080604001519250806060015191505090919293565b6040518060800160405280600073ffffffffffffffffffffffffffffffffffffffff16815260200160608152602001600060ff168152602001600081525090565b828054600181600116156101000203166002900490600052602060002090601f016020900481019282601f10610ab157805160ff1916838001178555610adf565b82800160010185558215610adf579182015b82811115610ade578251825591602001919060010190610ac3565b5b509050610aec9190610af0565b5090565b610b1291905b80821115610b0e576000816000905550600101610af6565b5090565b9056fea265627a7a72315820c5ece74a9aa92f6740150d3d013500d91b8f4df3a0880df0f09a54460d902f5464736f6c63430005100032",
  "source": "pragma solidity >=0.4.22 <0.9.0;\n\ncontract MultiNumberBettingV4 {\n    // Winner\n    struct winner {\n        address winnerAddress;\n        string name;\n        uint8 guess;\n        uint guessedAt;\n    }\n\n    uint loserCount;\n    uint winnerCount;\n    uint lastWinnerAt;  // time of last winning\n    uint8[] arr;  // array of numbers to be guessed (0 to 10)\n    address lastWinnerAddress;  \n    mapping(address => winner) winners;  // mapping to keep track of winners' info\n\n    constructor(uint8 x, uint8 y, uint8 z) public {\n        arr = [x, y, z];\n    }\n\n    /* Lets user guess a number in the array (0-10) */\n    function guess(uint8 x, string memory name) public returns (bool) {\n        assert(x <= 10);\n        for (uint i=0; i < arr.length; i++) {\n            if (arr[i] == x) {\n                winnerCount++;\n                lastWinnerAddress = tx.origin;\n                lastWinnerAt = now;\n                winners[lastWinnerAddress] = winner(lastWinnerAddress, name, x, now);\n                return true;\n            }\n        }\n\n        loserCount++;\n        return false;\n    } \n\n    function getLoserCount() public view returns (uint) {\n        return loserCount;\n    }\n\n    function getWinnerCount() public view returns (uint) {\n        return winnerCount;\n    }\n\n    function daysSinceLastWinning() public view returns (uint) {\n        return lastWinnerAt != 0 ? (now - lastWinnerAt) / 1 days : 0;\n    }\n\n    function hoursSinceLastWinning() public view returns (uint) {\n        return lastWinnerAt != 0 ? (now - lastWinnerAt) / 1 hours : 0;\n    }\n\n    function minutesSinceLastWinning() public view returns (uint) {\n        return lastWinnerAt != 0 ? (now - lastWinnerAt) / 1 minutes : 0;\n    }\n\n    function getLastWinnerInfo() public view returns (address winnerAddress, string memory name, uint8 guessVal, uint timeGuessed) {\n        winner memory lastWinner = winners[lastWinnerAddress];\n        winnerAddress = lastWinner.winnerAddress;\n        name = lastWinner.name;\n        guessVal = lastWinner.guess;\n        timeGuessed = lastWinner.guessedAt;\n    }\n\n    function checkWinning(address addr) public view returns (address winnerAddress, string memory name, uint8 guessVal, uint guessedAt) {\n        winner memory winr = winners[addr];\n        if (winr.winnerAddress != address(0)) {\n            winnerAddress = winr.winnerAddress;\n            name = winr.name;\n            guessVal = winr.guess;\n            guessedAt = winr.guessedAt;\n        }\n    }\n}\n",
  "sourcePath": "/Users/lordchingiss/Desktop/CS/Personal/DistributedSystems/Ethereum/DAppDesignDevelopment/Exercises/MultiNumberBettingV4/contracts/MultiNumberBettingV4.sol",
  "compiler": {
    "name": "solc",
    "version": "0.5.16+commit.9c3226ce.Emscripten.clang"
  },
  "schemaVersion": "3.3.3",
  "updatedAt": "2021-01-06T01:16:38.638Z",
  "devdoc": {
    "methods": {}
  },
  "userdoc": {
    "methods": {}
  }
}