{
  "contractName": "MultiNumberBettingV3",
  "abi": [
    {
      "inputs": [
        {
          "internalType": "uint8",
          "name": "x",
          "type": "uint8"
        },
        {
          "internalType": "uint8",
          "name": "y",
          "type": "uint8"
        },
        {
          "internalType": "uint8",
          "name": "z",
          "type": "uint8"
        }
      ],
      "payable": false,
      "stateMutability": "nonpayable",
      "type": "constructor"
    },
    {
      "constant": false,
      "inputs": [
        {
          "internalType": "uint8",
          "name": "x",
          "type": "uint8"
        },
        {
          "internalType": "string",
          "name": "name",
          "type": "string"
        }
      ],
      "name": "guess",
      "outputs": [
        {
          "internalType": "bool",
          "name": "",
          "type": "bool"
        }
      ],
      "payable": false,
      "stateMutability": "nonpayable",
      "type": "function"
    },
    {
      "constant": true,
      "inputs": [],
      "name": "getLoserCount",
      "outputs": [
        {
          "internalType": "uint256",
          "name": "",
          "type": "uint256"
        }
      ],
      "payable": false,
      "stateMutability": "view",
      "type": "function"
    },
    {
      "constant": true,
      "inputs": [],
      "name": "getWinnerCount",
      "outputs": [
        {
          "internalType": "uint256",
          "name": "",
          "type": "uint256"
        }
      ],
      "payable": false,
      "stateMutability": "view",
      "type": "function"
    },
    {
      "constant": true,
      "inputs": [],
      "name": "daysSinceLastWinning",
      "outputs": [
        {
          "internalType": "uint256",
          "name": "",
          "type": "uint256"
        }
      ],
      "payable": false,
      "stateMutability": "view",
      "type": "function"
    },
    {
      "constant": true,
      "inputs": [],
      "name": "hoursSinceLastWinning",
      "outputs": [
        {
          "internalType": "uint256",
          "name": "",
          "type": "uint256"
        }
      ],
      "payable": false,
      "stateMutability": "view",
      "type": "function"
    },
    {
      "constant": true,
      "inputs": [],
      "name": "minutesSinceLastWinning",
      "outputs": [
        {
          "internalType": "uint256",
          "name": "",
          "type": "uint256"
        }
      ],
      "payable": false,
      "stateMutability": "view",
      "type": "function"
    },
    {
      "constant": true,
      "inputs": [],
      "name": "minuteToSeconds",
      "outputs": [
        {
          "internalType": "uint256",
          "name": "",
          "type": "uint256"
        }
      ],
      "payable": false,
      "stateMutability": "pure",
      "type": "function"
    },
    {
      "constant": true,
      "inputs": [],
      "name": "getLastWinner",
      "outputs": [
        {
          "internalType": "bytes",
          "name": "",
          "type": "bytes"
        }
      ],
      "payable": false,
      "stateMutability": "view",
      "type": "function"
    }
  ],
  "bytecode": "0x608060405234801561001057600080fd5b5060405161084a38038061084a8339818101604052606081101561003357600080fd5b8101908080519060200190929190805190602001909291908051906020019092919050505060405180606001604052808460ff1660ff1681526020018360ff1660ff1681526020018260ff1660ff16815250600390600361009592919061009e565b50505050610175565b82805482825590600052602060002090601f016020900481019282156101345791602002820160005b8382111561010557835183826101000a81548160ff021916908360ff16021790555092602001926001016020816000010492830192600103026100c7565b80156101325782816101000a81549060ff0219169055600101602081600001049283019260010302610105565b505b5090506101419190610145565b5090565b61017291905b8082111561016e57600081816101000a81549060ff02191690555060010161014b565b5090565b90565b6106c6806101846000396000f3fe608060405234801561001057600080fd5b50600436106100885760003560e01c806395583f711161005b57806395583f7114610105578063a46c3637146101e5578063d99cbdd814610203578063f88649a11461022157610088565b806315153cdc1461008d57806348992bfa146100ab5780636d48a043146100c9578063817495a1146100e7575b600080fd5b6100956102a4565b6040518082815260200191505060405180910390f35b6100b36102cd565b6040518082815260200191505060405180910390f35b6100d16102f5565b6040518082815260200191505060405180910390f35b6100ef61031f565b6040518082815260200191505060405180910390f35b6101cb6004803603604081101561011b57600080fd5b81019080803560ff1690602001909291908035906020019064010000000081111561014557600080fd5b82018360208201111561015757600080fd5b8035906020019184600183028401116401000000008311171561017957600080fd5b91908080601f016020809104026020016040519081016040528093929190818152602001838380828437600081840152601f19601f820116905080830192505050505050509192919290505050610328565b604051808215151515815260200191505060405180910390f35b6101ed61042a565b6040518082815260200191505060405180910390f35b61020b610434565b6040518082815260200191505060405180910390f35b61022961043d565b6040518080602001828103825283818151815260200191508051906020019080838360005b8381101561026957808201518184015260208101905061024e565b50505050905090810190601f1680156102965780820380516001836020036101000a031916815260200191505b509250505060405180910390f35b60008060025414156102b75760006102c8565b610e106002544203816102c657fe5b045b905090565b60008060025414156102e05760006102f0565b603c6002544203816102ee57fe5b045b905090565b600080600254141561030857600061031a565b6201518060025442038161031857fe5b045b905090565b60008054905090565b6000600a8360ff16111561033857fe5b60008090505b60038054905081101561040d578360ff166003828154811061035c57fe5b90600052602060002090602091828204019190069054906101000a900460ff1660ff1614156104005760016000815480929190600101919050555082600490805190602001906103ad9291906105ec565b504260028190555032600560006101000a81548173ffffffffffffffffffffffffffffffffffffffff021916908373ffffffffffffffffffffffffffffffffffffffff1602179055506001915050610424565b808060010191505061033e565b506000808154809291906001019190505550600090505b92915050565b6000600154905090565b6000603c905090565b60608060048054600181600116156101000203166002900480601f0160208091040260200160405190810160405280929190818152602001828054600181600116156101000203166002900480156104d65780601f106104ab576101008083540402835291602001916104d6565b820191906000526020600020905b8154815290600101906020018083116104b957829003601f168201915b5050505050905060008151146105af5760006003825111156104f95760036104fc565b81515b90506060816040519080825280601f01601f1916602001820160405280156105335781602001600182028038833980820191505090505b50905060008090505b828110156105a35783818151811061055057fe5b602001015160f81c60f81b82828151811061056757fe5b60200101907effffffffffffffffffffffffffffffffffffffffffffffffffffffffffffff1916908160001a905350808060010191505061053c565b508093505050506105e9565b6040518060400160405280600381526020017f2a2a2a00000000000000000000000000000000000000000000000000000000008152509150505b90565b828054600181600116156101000203166002900490600052602060002090601f016020900481019282601f1061062d57805160ff191683800117855561065b565b8280016001018555821561065b579182015b8281111561065a57825182559160200191906001019061063f565b5b509050610668919061066c565b5090565b61068e91905b8082111561068a576000816000905550600101610672565b5090565b9056fea265627a7a72315820f3bf31c8b70f5562d66e1bd29b263e313b326a28abcca5fd84199f3c197ef7cb64736f6c63430005100032",
  "source": "pragma solidity >=0.4.22 <0.9.0;\n\ncontract MultiNumberBettingV3 {\n    uint loserCount;\n    uint winnerCount;\n    uint lastWinnerAt;  // time of last winning\n    uint8[] arr;  // array of numbers to be guessed (0 to 10)\n    string lastWinnerName;  // name of last winner\n    address winner;  // address of last winner\n\n    constructor(uint8 x, uint8 y, uint8 z) public {\n        arr = [x, y, z];\n    }\n\n    function guess(uint8 x, string memory name) public returns (bool) {\n        assert(x <= 10);\n        for (uint i=0; i < arr.length; i++) {\n            if (arr[i] == x) {\n                winnerCount++;\n                lastWinnerName = name;\n                lastWinnerAt = now;\n                winner = tx.origin;\n                return true;\n            }\n        }\n\n        loserCount++;\n        return false;\n    } \n\n    function getLoserCount() public view returns (uint) {\n        return loserCount;\n    }\n\n    function getWinnerCount() public view returns (uint) {\n        return winnerCount;\n    }\n\n    function daysSinceLastWinning() public view returns (uint) {\n        return lastWinnerAt != 0 ? (now - lastWinnerAt) / 1 days : 0;\n    }\n\n    function hoursSinceLastWinning() public view returns (uint) {\n        return lastWinnerAt != 0 ? (now - lastWinnerAt) / 1 hours : 0;\n    }\n\n    function minutesSinceLastWinning() public view returns (uint) {\n        return lastWinnerAt != 0 ? (now - lastWinnerAt) / 1 minutes : 0;\n    }\n\n    function minuteToSeconds() public pure returns (uint) {\n        return 1 * 1 minutes;\n    }\n\n    /* Returns the first 3 letters of the last winner's name. */\n    function getLastWinner() public view returns (bytes memory) {\n        bytes memory lastWinnerNameBytes = bytes(lastWinnerName);\n        if (lastWinnerNameBytes.length != 0) {\n            uint end = lastWinnerNameBytes.length <= 3? lastWinnerNameBytes.length : 3;\n            bytes memory firstThreeBytes = new bytes(end);\n            for (uint i = 0; i < end; i++) {\n                firstThreeBytes[i] = lastWinnerNameBytes[i];\n            }\n            return firstThreeBytes;\n        }\n        else {\n            return bytes(\"***\");\n        }\n    }\n}\n",
  "sourcePath": "/Users/lordchingiss/Desktop/CS/Personal/DistributedSystems/Ethereum/DAppDesignDevelopment/Exercises/MultiNumberBettingV3/contracts/MultiNumberBettingV3.sol",
  "compiler": {
    "name": "solc",
    "version": "0.5.16+commit.9c3226ce.Emscripten.clang"
  },
  "schemaVersion": "3.3.3",
  "updatedAt": "2021-01-05T20:53:34.013Z",
  "devdoc": {
    "methods": {}
  },
  "userdoc": {
    "methods": {}
  }
}